:100000000C942A000C9447000C9447000C94470071
:100010000C9447000C9447000C9447000C94470044
:100020000C9447000C9447000C9475200C944700E6
:100030000C9447000C9447000C9447000C94470024
:100040000C9447000C9447000C9447000C94470014
:100050000C94470011241FBECFE5D8E0DEBFCDBF12
:1000600011E0A0E6B0E0ECECF5E402C005900D92E2
:10007000AA33B107D9F713E0AAE3B1E001C01D929A
:10008000A933B107E1F70E9441200C94E4220C94BB
:100090000000EF92FF920F931F937B018C0120E0F1
:1000A00030E040E05FE40E94F50388238CF0C80153
:1000B000B70120E030E040E05FE40E94C1010E940F
:1000C00055049B01AC01205030404040504806C0D0
:1000D000C801B7010E9455049B01AC01B901CA01D6
:1000E0001F910F91FF90EF900895A0E0B0E0EBE733
:1000F000F0E00C94AD22DC012B01FA019C919230CE
:1001000008F439C1EB018881823008F433C194309E
:1001100069F4843009F02FC111969C91119789815F
:10012000981709F428C1AAE2B1E025C1843009F486
:1001300021C18230A9F4923009F01DC19A01AD01AC
:1001400088E0EA010990AE01E90109929E0181501F
:10015000C1F7E201898111969C918923818308C1AD
:10016000923009F407C112962D903C901397EB0141
:100170008A819B811496AD90BD90CD90DC901797AD
:10018000EC80FD800E811F819101281B390BB90184
:1001900037FF04C066277727621B730B6032710537
:1001A0000CF061C0121613066CF537014801062EDB
:1001B00004C096948794779467940A94D2F721E0C8
:1001C00030E040E050E004C0220F331F441F551FB1
:1001D0006A95D2F721503040404050402E213F21B7
:1001E00040235123211531054105510521F021E01E
:1001F00030E040E050E079018A01E628F72808293C
:1002000019293CC0232BD1F1260E371E350146019A
:10021000062E04C096948794779467940A94D2F734
:1002200021E030E040E050E004C0220F331F441FC3
:10023000551F6A95D2F721503040404050402A2146
:100240003B214C215D21211531054105510521F04E
:1002500021E030E040E050E059016A01A628B728CB
:10026000C828D9280BC0821593052CF01C01AA249C
:10027000BB24650103C0EE24FF24870111969C91E5
:10028000D20111968C91981709F445C0992339F041
:10029000A80197012A193B094C095D0906C0A6016E
:1002A00095012E193F09400B510B57FD08C01182D3
:1002B0003382228224833583468357831DC081E0A5
:1002C00081833382228288279927DC01821B930B4A
:1002D000A40BB50B84839583A683B7830DC0220F2F
:1002E000331F441F551F24833583468357838281E0
:1002F000938101979383828324813581468157813D
:10030000DA01C9010197A109B1098F5F9F4FAF4F72
:10031000BF4328F30BC0918333822282EA0CFB1C7B
:100320000C1D1D1DE482F5820683178383E0808304
:10033000248135814681578157FF1AC0C901AA27F8
:1003400097FDA095BA2F81709070A070B0705695EF
:10035000479537952795822B932BA42BB52B848318
:100360009583A683B7838281938101969383828349
:10037000DF0101C0D201CD01CDB7DEB7E2E10C94BF
:10038000C922A0E2B0E0E7ECF1E00C94B922698365
:100390007A838B839C832D833E834F835887E9E048
:1003A000EE2EF12CEC0EFD1ECE010196B7010E943F
:1003B0007E058E010F5E1F4FCE010596B8010E948B
:1003C0007E058A8991E089278A8BC701B801AE0131
:1003D000475E5F4F0E9475000E94A904A096E6E068
:1003E0000C94D522A0E2B0E0E8EFF1E00C94B92241
:1003F00069837A838B839C832D833E834F835887C5
:10040000F9E0EF2EF12CEC0EFD1ECE010196B701A6
:100410000E947E058E010F5E1F4FCE010596B8012A
:100420000E947E05C701B801AE01475E5F4F0E9482
:1004300075000E94A904A096E6E00C94D522A0E2E3
:10044000B0E0E5E2F2E00C94AD2269837A838B831D
:100450009C832D833E834F835887CE010196BE0136
:10046000675F7F4F0E947E05CE010596BE016F5EDD
:100470007F4F0E947E059985923088F0898982306D
:10048000C8F0943019F4823051F404C0843029F457
:10049000923081F48AE291E0C6C0923049F420E0C3
:1004A0009A858A89981321E02A87CE010996BBC0D4
:1004B000823049F420E09A858A89981321E02A8BBA
:1004C000CE014196B0C02D843E844F8458886D88FB
:1004D0007E888F88988CEE24FF248701AA24BB2471
:1004E000650140E050E060E070E0E0E0F0E0C10174
:1004F00081709070892BE9F0E60CF71C081D191D1E
:100500009A01AB012A0D3B1D4C1D5D1D80E090E062
:10051000A0E0B0E0E614F7040805190520F481E036
:1005200090E0A0E0B0E0BA01A901480F591F6A1F8E
:100530007B1FAA0CBB1CCC1CDD1C97FE08C081E0F5
:1005400090E0A0E0B0E0A82AB92ACA2ADB2A3196B6
:10055000E032F10549F0660C771C881C991C569412
:10056000479437942794C3CFFA85EA892B893C892D
:100570008B859C85280F391F2E5F3F4F17C0CA01FE
:1005800081709070892B61F016950795F794E79428
:1005900080E090E0A0E0B0E8E82AF92A0A2B1B2BC3
:1005A00076956795579547952F5F3F4F77FDE7CF36
:1005B0000CC0440F551F661F771F17FD4160EE0CDE
:1005C000FF1C001F111F21503040403090E05907A0
:1005D00090E0690790E4790760F32B8F3C8FDB0193
:1005E000CA018F779070A070B07080349105A1051A
:1005F000B10561F447FD0AC0E114F10401051105DC
:1006000029F0405C5F4F6F4F7F4F40781A8EFE1786
:1006100011F081E08A8F4D8F5E8F6F8F78A383E01A
:10062000898FCE0149960E94A904A096E2E10C941C
:10063000C922A8E1B0E0EFE1F3E00C94B5226983B0
:100640007A838B839C832D833E834F835887B9E0C5
:10065000EB2EF12CEC0EFD1ECE010196B7010E948F
:100660007E058E010F5E1F4FCE010596B8010E94D8
:100670007E052985223008F47EC03989323010F495
:10068000B8017CC08A859A8989278A87243011F02D
:10069000223031F4231709F06EC06AE271E06EC0B7
:1006A000343039F41D861E861F86188A1C861B86E8
:1006B00004C0323021F484E08987B7015FC02B8504
:1006C0003C858B899C89281B390B3C872B87ED84C3
:1006D000FE840F851889AD88BE88CF88D88CEA142F
:1006E000FB040C051D0540F4EE0CFF1C001F111F40
:1006F000215030403C872B8720E030E040E050E044
:1007000080E090E0A0E0B0E460E070E0EA14FB0478
:100710000C051D0540F0282B392B4A2B5B2BEA18C2
:10072000FB080C091D09B695A79597958795EE0CC2
:10073000FF1C001F111F6F5F7F4F6F31710531F775
:10074000DA01C9018F779070A070B0708034910584
:10075000A105B10561F427FD0AC0E114F10401050A
:10076000110529F0205C3F4F4F4F5F4F20782D87B8
:100770003E874F87588BBE01675F7F4FCB010E943A
:10078000A9046896EAE00C94D122A8E1B0E0EBEC71
:10079000F3E00C94B92269837A838B839C832D8345
:1007A0003E834F83588789E0E82EF12CEC0EFD1E26
:1007B000CE010196B7010E947E058E010F5E1F4F8C
:1007C000CE010596B8010E947E058985823040F0F1
:1007D0008989823028F0C701B8010E94F60501C05E
:1007E0008FEF6896E6E00C94D522A8E1B0E0EBEF3D
:1007F000F3E00C94B92269837A838B839C832D83E5
:100800003E834F83588789E0E82EF12CEC0EFD1EC5
:10081000CE010196B7010E947E058E010F5E1F4F2B
:10082000CE010596B8010E947E058985823040F090
:100830008989823028F0C701B8010E94F60501C0FD
:100840008FEF6896E6E00C94D522A8E1B0E0EBE2E9
:10085000F4E00C94B92269837A838B839C832D8383
:100860003E834F83588789E0E82EF12CEC0EFD1E65
:10087000CE010196B7010E947E058E010F5E1F4FCB
:10088000CE010596B8010E947E058985823040F030
:100890008989823028F0C701B8010E94F60501C09D
:1008A00081E06896E6E00C94D522ACE0B0E0EBE5A0
:1008B000F4E00C94BD2269837A838B839C83CE0100
:1008C0000196BE016B5F7F4F0E947E058D81823055
:1008D00061F1823050F1843021F48E81882351F10E
:1008E0002EC02F81388537FD20C06E812F31310514
:1008F0001CF06623F9F023C08EE190E0821B930B7D
:1009000029853A854B855C8504C056954795379572
:1009100027958A95D2F76623B1F05095409530958A
:1009200021953F4F4F4F5F4F0EC020E030E040E039
:1009300050E009C02FEF3FEF4FEF5FE704C020E02A
:1009400030E040E050E8B901CA012C96E2E00C9496
:10095000D922DF92EF92FF920F931F93FC01E48064
:10096000F58006811781D1808081823048F480E053
:1009700090E0A0E1B0E0E82AF92A0A2B1B2BA5C0E1
:10098000843009F49FC0823021F4EE24FF248701D3
:1009900005C0E114F1040105110519F4E0E0F0E0EF
:1009A00096C0628173819FEF623879070CF05BC05B
:1009B00022E83FEF261B370B2A3131052CF020E0CF
:1009C00030E040E050E02AC0B801A701022E04C088
:1009D00076956795579547950A94D2F781E090E010
:1009E000A0E0B0E004C0880F991FAA1FBB1F2A9582
:1009F000D2F70197A109B1098E219F21A023B1232C
:100A00000097A105B10521F081E090E0A0E0B0E001
:100A10009A01AB01282B392B4A2B5B2BDA01C90138
:100A20008F779070A070B07080349105A105B105EA
:100A300039F427FF09C0205C3F4F4F4F5F4F04C080
:100A4000215C3F4F4F4F5F4FE0E0F0E02030A0E0EF
:100A50003A07A0E04A07A0E45A0710F0E1E0F0E00E
:100A600079018A0127C06038710564F5FB01E158FE
:100A7000FF4FD801C7018F779070A070B07080349D
:100A80009105A105B10539F4E7FE0DC080E490E0C1
:100A9000A0E0B0E004C08FE390E0A0E0B0E0E80E9A
:100AA000F91E0A1F1B1F17FF05C016950795F7941F
:100AB000E794319687E016950795F794E7948A9521
:100AC000D1F705C0EE24FF248701EFEFF0E06E2F91
:100AD000679566276795902F9F77D794DD24D794E5
:100AE0008E2F8695492F462B582F5D29B701CA01B5
:100AF0001F910F91FF90EF90DF900895FC01DB01B3
:100B0000408151812281622F6F7770E0221F22275E
:100B1000221F9381892F880F822B282F30E0991F65
:100B20009927991F11969C93119721153105A9F5C5
:100B3000411551056105710511F482E037C082E865
:100B40009FEF13969C938E9312979A01AB0167E0E7
:100B5000220F331F441F551F6A95D1F783E08C93F2
:100B60000DC0220F331F441F551F12968D919C916B
:100B70001397019713969C938E931297203080E0E1
:100B8000380780E0480780E4580758F314962D93FF
:100B90003D934D935C93179708952F3F310579F45A
:100BA000411551056105710519F484E08C93089590
:100BB00064FF03C081E08C9312C01C9210C02F57B9
:100BC000304013963C932E93129783E08C9387E0EA
:100BD000440F551F661F771F8A95D1F770641496CE
:100BE0004D935D936D937C93179708951F93DC014C
:100BF000FB019C91923008F447C08081823008F458
:100C000043C0943051F411961C91843099F5818140
:100C1000682F70E0611B71093FC0843021F0923071
:100C200031F48230B9F18181882389F12DC0119688
:100C30001C9111978230F1F081811817D9F4129626
:100C40002D913C911397828193818217930794F0A1
:100C500028173907BCF014968D919D910D90BC9189
:100C6000A02D2481358146815781281739074A07ED
:100C70005B0718F4112341F00AC082179307A407F9
:100C8000B50740F4112319F061E070E005C06FEF83
:100C90007FEF02C060E070E0CB011F910895DF9309
:100CA000CF9300D0CDB7DEB789836A838A81813044
:100CB00009F06DC089818830A0F4ABE3B0E0EBE3CC
:100CC000F0E08081482F8981282F30E081E090E09A
:100CD000022E02C0880F991F0A94E2F7842B8C938E
:100CE000C8C089818830C8F089818031B0F4A8E318
:100CF000B0E0E8E3F0E08081482F8981882F90E020
:100D000008979C0181E090E0022E02C0880F991F95
:100D10000A94E2F7842B8C93ACC089818031C8F0AF
:100D200089818831B0F4A5E3B0E0E5E3F0E08081AB
:100D3000482F8981882F90E040979C0181E090E0C6
:100D4000022E02C0880F991F0A94E2F7842B8C931D
:100D500090C08981883108F48CC08981803208F084
:100D600088C0A2E3B0E0E2E3F0E08081482F89810F
:100D7000882F90E048979C0181E090E0022E02C00D
:100D8000880F991F0A94E2F7842B8C9372C08A8192
:100D9000882309F06EC089818830A8F4ABE3B0E005
:100DA000EBE3F0E08081482F8981282F30E081E05B
:100DB00090E0022E02C0880F991F0A94E2F78095F6
:100DC00084238C9356C089818830D0F0898180310A
:100DD000B8F4A8E3B0E0E8E3F0E08081482F89812F
:100DE000882F90E008979C0181E090E0022E02C0DD
:100DF000880F991F0A94E2F7809584238C9339C059
:100E000089818031D0F089818831B8F4A5E3B0E0E0
:100E1000E5E3F0E08081482F8981882F90E04097BA
:100E20009C0181E090E0022E02C0880F991F0A9475
:100E3000E2F7809584238C931CC089818831C8F0A7
:100E400089818032B0F4A2E3B0E0E2E3F0E0808197
:100E5000482F8981882F90E048979C0181E090E09D
:100E6000022E02C0880F991F0A94E2F7809584230E
:100E70008C930F900F90CF91DF910895DF93CF93D4
:100E800000D0CDB7DEB789838981883098F4E9E353
:100E9000F0E08081282F30E08981882F90E0A9013F
:100EA00002C0559547958A95E2F7CA01582F5170AF
:100EB0005A8350C089818830B8F089818031A0F48C
:100EC000E6E3F0E08081282F30E08981882F90E0F0
:100ED0000897A90102C0559547958A95E2F7CA017E
:100EE000582F51705A8336C089818031B8F089817A
:100EF0008831A0F4E3E3F0E08081282F30E089819D
:100F0000882F90E04097A90102C0559547958A9592
:100F1000E2F7CA01582F51705A831CC08981883169
:100F2000B8F089818032A0F4E0E3F0E08081282FDE
:100F300030E08981882F90E04897A90102C055953B
:100F400047958A95E2F7CA01582F51705A8302C01B
:100F500088E08A838A810F900F90CF91DF91089566
:100F6000DF93CF9300D0CDB7DEB789836A838A81C0
:100F7000882309F071C089818830A8F4AAE3B0E021
:100F8000EAE3F0E08081482F8981282F30E081E07A
:100F900090E0022E02C0880F991F0A94E2F7809514
:100FA00084238C93C7C089818830D0F089818031B7
:100FB000B8F4A7E3B0E0E7E3F0E08081482F89814F
:100FC000882F90E008979C0181E090E0022E02C0FB
:100FD000880F991F0A94E2F7809584238C93AAC006
:100FE00089818031D0F089818831B8F4A4E3B0E000
:100FF000E4E3F0E08081482F8981882F90E04097DA
:101000009C0181E090E0022E02C0880F991F0A9493
:10101000E2F7809584238C938DC08981883108F410
:1010200089C08981803208F085C0A1E3B0E0E1E3A6
:10103000F0E08081482F8981882F90E048979C01BB
:1010400081E090E0022E02C0880F991F0A94E2F717
:10105000809584238C936EC08A81813009F06AC0A8
:1010600089818830A0F4AAE3B0E0EAE3F0E080816F
:10107000482F8981282F30E081E090E0022E02C0C5
:10108000880F991F0A94E2F7842B8C9353C08981AF
:101090008830C8F089818031B0F4A7E3B0E0E7E39D
:1010A000F0E08081482F8981882F90E008979C018B
:1010B00081E090E0022E02C0880F991F0A94E2F7A7
:1010C000842B8C9337C089818031C8F08981883125
:1010D000B0F4A4E3B0E0E4E3F0E08081482F89813C
:1010E000882F90E040979C0181E090E0022E02C0A2
:1010F000880F991F0A94E2F7842B8C931BC0898177
:101100008831C0F089818032A8F4A1E3B0E0E1E346
:10111000F0E08081482F8981882F90E048979C01DA
:1011200081E090E0022E02C0880F991F0A94E2F736
:10113000842B8C930F900F90CF91DF910895DF93C4
:10114000CF93CDB7DEB7A3E5B0E0E3E5F0E0808173
:10115000877B8C93A3E5B0E0E3E5F0E080818860D5
:101160008C93ECE5F0E08DE78083A3E5B0E0E3E568
:10117000F0E08081887F8C93A3E5B0E0E3E5F0E0C8
:10118000808182608C93A3E5B0E0E3E5F0E08081AC
:1011900081608C93A9E5B0E0E9E5F0E080818260B0
:1011A0008C93CF91DF910895DF93CF93CDB7DEB7C6
:1011B000A3E5B0E0E3E5F0E08081887F8C93ECE587
:1011C000F0E01082CF91DF910895DF93CF93CDB7F8
:1011D000DEB782E160E00E94B00783E160E00E9438
:1011E000B00784E160E00E94B00785E161E00E9401
:1011F000B00786E161E00E94B00787E161E00E94EC
:10120000B00782E161E00E944F0683E161E00E9445
:101210004F0684E161E00E944F0685E160E00E9494
:101220004F0686E160E00E944F0687E160E00E9481
:101230004F06CF91DF910895DF93CF9300D000D078
:10124000CDB7DEB78AE08B8319824DC0E4E3F0E0CE
:101250008981282F30E080E290E002C0880F991F3A
:101260002A95E2F78083E5E3F0E08981282F30E0DA
:1012700080E290E0022E02C0880F991F0A94E2F7E4
:101280008095808382E08A8328C0E3E3F0E0808158
:10129000282F30E08A81882F90E0A90102C055955F
:1012A00047958A95E2F7CA0181709070009791F492
:1012B0008A8180933D0121E03AE082E064E070E0C1
:1012C000A9010E9447218A81825069810E94810977
:1012D0008C830FC08A818F5F8A838A818530A8F2D0
:1012E00089818F5F89838981833008F4AFCF5B81E7
:1012F0005C838C810F900F900F900F90CF91DF91B6
:101300000895DF93CF93CDB7DEB72B970FB6F89440
:10131000DEBF0FBECDBF8A836B8319828A81282FDF
:1013200030E03B872A878A859B858130910541F192
:101330002A853B852230310509F43EC08A859B858C
:10134000009709F054C08B81282F30E03987288717
:10135000888599858130910569F028853985223005
:10136000310559F088859985009709F040C081E0E2
:1013700089833DC082E089833AC083E0898337C096
:101380008B81282F30E03F832E838E819F81813097
:10139000910561F02E813F812230310551F08E811F
:1013A0009F81009721F584E0898321C085E08983AE
:1013B0001EC086E089831BC08B81282F30E03D83CF
:1013C0002C838C819D818130910561F02C813D8140
:1013D0002230310551F08C819D81009741F487E0E6
:1013E000898305C088E0898302C089E08983898177
:1013F0002B960FB6F894DEBF0FBECDBFCF91DF9115
:101400000895DF93CF9300D0CDB7DEB78DE061E0D4
:101410000E944F0680913901282F30E03A832983BA
:1014200049815A814230510509F494C089819A81D9
:101430008330910534F429813A812130310581F1DD
:1014400093C049815A814330510539F089819A818D
:101450008430910509F45DC087C0E3E3F0E080814A
:10146000282F30E080913D01882F90E0A90102C033
:10147000559547958A95E2F7CA018170907000975B
:1014800009F072C0809138018F5F8093380180919C
:1014900038018A3009F068C081E08093390164C066
:1014A000E3E3F0E08081282F30E080913D01882F38
:1014B00090E0A90102C0559547958A95E2F7CA01C7
:1014C00081709070009709F180913E01813021F088
:1014D00080913E018330B1F480913A01882F90E0F1
:1014E000FC01EE5CFE4F908180913E01981729F43B
:1014F00080913B018F5F80933B0180913A018F5F28
:1015000080933A0184E08093390181E0809338012F
:101510002BC0E3E3F0E08081282F30E080913D0193
:10152000882F90E0A90102C0559547958A95E2F76A
:10153000CA01817090708823B9F080913701815081
:101540008093370180913701813071F482E080937C
:1015500039010AC08AE08093370183E08093390122
:1015600081E09AE00E94F1218DE060E00E944F0648
:101570000F900F90CF91DF910895DF93CF93CDB768
:10158000DEB78EE061E00E944F0680913C0184311D
:1015900030F480913C018F5F80933C0104C00E9435
:1015A0001C0980933E018EE060E00E944F06CF91BF
:1015B000DF910895DF93CF93CDB7DEB7AAE3B0E014
:1015C000EAE3F0E080818E608C93AAE3B0E0EAE386
:1015D000F0E08081806F8C9382E00E94FB0A88E2B9
:1015E0000E94FB0A8CE00E94FB0A81E00E94FB0A39
:1015F000CF91DF9108950F931F93DF93CF93CDB7D2
:10160000DEB7C95AD0400FB6F894DEBF0FBECDBFCB
:10161000FE01E755FF4F8083ABE3B0E0EBE3F0E082
:1016200080818D7F8C93ABE3B0E0EBE3F0E08081D1
:101630008B7F8C93FE01EB55FF4F80E090E0A6E19D
:10164000B4E480839183A283B3838E010F551F4F2F
:10165000FE01EB55FF4F60817181828193812BEAFE
:101660003AEA4AE250E40E941F02DC01CB01F80191
:1016700080839183A283B383FE01EF55FF4F608186
:1016800071818281938120E030E040E85FE30E9435
:101690002504882334F4FE01E056FF4F81E0808367
:1016A000E0C0FE01EF55FF4F60817181828193811F
:1016B00020E030E04FE753E40E94C50318160CF019
:1016C000C0C0FE01EB55FF4F608171818281938123
:1016D00020E030E04AE754E40E941903DC01CB012A
:1016E000FE01E456FF4F80839183A283B3838E0172
:1016F00008561F4FFE01E456FF4F608171818281C1
:10170000938120E030E04AEF54E40E941F02DC01A4
:10171000CB01F80180839183A283B383FE01E85655
:10172000FF4F608171818281938120E030E040E849
:101730005FE30E942504882344F4FE01EA56FF4F2C
:1017400081E090E09183808364C0FE01E856FF4F02
:10175000608171818281938120E03FEF4FE757E400
:101760000E94C50318160CF043C0FE01E456FF4F5B
:10177000608171818281938120E030E040E251E418
:101780000E941F02DC01CB018E010A561F4FBC01D3
:10179000CD010E944900DC01CB01F80191838083D7
:1017A0001FC0FE01EC56FF4F88EC90E091838083D0
:1017B000FE01EC56FF4F808191810197F1F7FE0108
:1017C000EC56FF4F91838083DE01AA56BF4FFE0186
:1017D000EA56FF4F80819181019711969C938E93D9
:1017E000FE01EA56FF4F808191810097D1F64BC0F0
:1017F0008E010A561F4FFE01E856FF4F608171812E
:10180000828193810E944900DC01CB01F801918320
:101810008083DE01AE56BF4FFE01EA56FF4F808146
:10182000918111969C938E93FE01EE56FF4F80811D
:1018300091810197F1F7FE01EE56FF4F918380836E
:1018400022C08E0100561F4FFE01EF55FF4F6081F1
:101850007181828193810E944900DC01CB01F801F2
:101860008083DE01AF56BF4FFE01E056FF4F8081FF
:101870008C93FE01EF56FF4F80818A95F1F7FE01B0
:10188000EF56FF4F8083ABE3B0E0EBE3F0E0808105
:1018900088608C93FE01E357FF4F80E090E0A6E163
:1018A000B4E480839183A283B3838E0107571F4FD3
:1018B000FE01E357FF4F60817181828193812BEAA2
:1018C0003AEA4AE250E40E941F02DC01CB01F8012F
:1018D00080839183A283B383FE01E757FF4F60812A
:1018E00071818281938120E030E040E85FE30E94D3
:1018F0002504882334F4FE01E857FF4F81E08083FC
:10190000E0C0FE01E757FF4F6081718182819381C2
:1019100020E030E04FE753E40E94C50318160CF0B6
:10192000C0C0FE01E357FF4F6081718182819381C6
:1019300020E030E04AE754E40E941903DC01CB01C7
:10194000FE01EC57FF4F80839183A283B3838E0106
:1019500000581F4FFE01EC57FF4F6081718182815B
:10196000938120E030E04AEF54E40E941F02DC0142
:10197000CB01F80180839183A283B383FE01E058F9
:10198000FF4F608171818281938120E030E040E8E7
:101990005FE30E942504882344F4FE01E258FF4FD0
:1019A00081E090E09183808364C0FE01E058FF4FA6
:1019B000608171818281938120E03FEF4FE757E49E
:1019C0000E94C50318160CF043C0FE01EC57FF4FF0
:1019D000608171818281938120E030E040E251E4B6
:1019E0000E941F02DC01CB018E0102581F4FBC0177
:1019F000CD010E944900DC01CB01F8019183808375
:101A00001FC0FE01E458FF4F88EC90E09183808373
:101A1000FE01E458FF4F808191810197F1F7FE01AB
:101A2000E458FF4F91838083DE01A258BF4FFE012F
:101A3000E258FF4F80819181019711969C938E937C
:101A4000FE01E258FF4F808191810097D1F64BC093
:101A50008E0102581F4FFE01E058FF4F60817181D7
:101A6000828193810E944900DC01CB01F8019183BE
:101A70008083DE01A658BF4FFE01E258FF4F8081F0
:101A8000918111969C938E93FE01E658FF4F8081C1
:101A900091810197F1F7FE01E658FF4F9183808312
:101AA00022C08E0108571F4FFE01E757FF4F60818C
:101AB0007181828193810E944900DC01CB01F80190
:101AC0008083DE01A758BF4FFE01E857FF4F80819A
:101AD0008C93FE01E758FF4F80818A95F1F7FE0154
:101AE000E758FF4F8083ABE3B0E0EBE3F0E08081A9
:101AF000982F9F70FE01E755FF4F8081807F892BD3
:101B00008C93FE01EB58FF4F80E090E0A6E1B4E437
:101B100080839183A283B3838E010F581F4FFE01F0
:101B2000EB58FF4F60817181828193812BEA3AEA01
:101B30004AE250E40E941F02DC01CB01F8018083DD
:101B40009183A283B383FE01EF58FF4F60817181BF
:101B50008281938120E030E040E85FE30E94250429
:101B6000882334F4FE01E059FF4F81E08083E0C018
:101B7000FE01EF58FF4F608171818281938120E0E7
:101B800030E04FE753E40E94C50318160CF0C0C0C4
:101B9000FE01EB58FF4F608171818281938120E0CB
:101BA00030E04AE754E40E941903DC01CB01FE0156
:101BB000E459FF4F80839183A283B3838E01085938
:101BC0001F4FFE01E459FF4F608171818281938133
:101BD00020E030E04AEF54E40E941F02DC01CB0118
:101BE000F80180839183A283B383FE01E859FF4FFC
:101BF000608171818281938120E030E040E85FE381
:101C00000E942504882344F4FE01EA59FF4F81E035
:101C100090E09183808364C0FE01E859FF4F6081AA
:101C200071818281938120E03FEF4FE757E40E946A
:101C3000C50318160CF043C0FE01E459FF4F608144
:101C400071818281938120E030E040E251E40E9482
:101C50001F02DC01CB018E010A591F4FBC01CD01CF
:101C60000E944900DC01CB01F801918380831FC0F1
:101C7000FE01EC59FF4F88EC90E091838083FE01D8
:101C8000EC59FF4F808191810197F1F7FE01EC59EA
:101C9000FF4F91838083DE01AA59BF4FFE01EA59AD
:101CA000FF4F80819181019711969C938E93FE0145
:101CB000EA59FF4F808191810097D1F64BC08E0188
:101CC0000A591F4FFE01E859FF4F608171818281DF
:101CD00093810E944900DC01CB01F801918380834C
:101CE000DE01AE59BF4FFE01EA59FF4F808191815D
:101CF00011969C938E93FE01EE59FF4F8081918146
:101D00000197F1F7FE01EE59FF4F9183808322C0C6
:101D10008E0100591F4FFE01EF58FF4F6081718106
:101D2000828193810E944900DC01CB01F80180830C
:101D3000DE01AF59BF4FFE01E059FF4F80818C9308
:101D4000FE01EF59FF4F80818A95F1F7FE01EF59AF
:101D5000FF4F8083ABE3B0E0EBE3F0E08081877F6F
:101D60008C93FE01E35AFF4F80E090E0A6E1B4E4DB
:101D700080839183A283B3838E01075A1F4FFE0194
:101D8000E35AFF4F60817181828193812BEA3AEAA5
:101D90004AE250E40E941F02DC01CB01F80180837B
:101DA0009183A283B383FE01E75AFF4F6081718163
:101DB0008281938120E030E040E85FE30E942504C7
:101DC000882334F4FE01E85AFF4F81E08083E0C0AD
:101DD000FE01E75AFF4F608171818281938120E08B
:101DE00030E04FE753E40E94C50318160CF0C0C062
:101DF000FE01E35AFF4F608171818281938120E06F
:101E000030E04AE754E40E941903DC01CB01FE01F3
:101E1000EC5AFF4F80839183A283B3838E01005BD2
:101E20001F4FFE01EC5AFF4F6081718182819381C7
:101E300020E030E04AEF54E40E941F02DC01CB01B5
:101E4000F80180839183A283B383FE01E05BFF4F9F
:101E5000608171818281938120E030E040E85FE31E
:101E60000E942504882344F4FE01E25BFF4F81E0D9
:101E700090E09183808364C0FE01E05BFF4F60814E
:101E800071818281938120E03FEF4FE757E40E9408
:101E9000C50318160CF043C0FE01EC5AFF4F6081D9
:101EA00071818281938120E030E040E251E40E9420
:101EB0001F02DC01CB018E01025B1F4FBC01CD0173
:101EC0000E944900DC01CB01F801918380831FC08F
:101ED000FE01E45BFF4F88EC90E091838083FE017C
:101EE000E45BFF4F808191810197F1F7FE01E45B94
:101EF000FF4F91838083DE01A25BBF4FFE01E25B57
:101F0000FF4F80819181019711969C938E93FE01E2
:101F1000E25BFF4F808191810097D1F64BC08E012B
:101F2000025B1F4FFE01E05BFF4F60817181828188
:101F300093810E944900DC01CB01F80191838083E9
:101F4000DE01A65BBF4FFE01E25BFF4F8081918106
:101F500011969C938E93FE01E65BFF4F80819181E9
:101F60000197F1F7FE01E65BFF4F9183808322C06A
:101F70008E01085A1F4FFE01E75AFF4F60817181A1
:101F8000828193810E944900DC01CB01F8018083AA
:101F9000DE01A75BBF4FFE01E85AFF4F80818C93A3
:101FA000FE01E75BFF4F80818A95F1F7FE01E75B59
:101FB000FF4F8083ABE3B0E0EBE3F0E0808188602B
:101FC0008C93FE01EB5BFF4F80E090E0A6E1B4E470
:101FD00080839183A283B3838E010F5B1F4FFE0129
:101FE000EB5BFF4F60817181828193812BEA3AEA3A
:101FF0004AE250E40E941F02DC01CB01F801808319
:102000009183A283B383FE01EF5BFF4F60817181F7
:102010008281938120E030E040E85FE30E94250464
:10202000882334F481E0FE01E05CFF4F80839DC093
:10203000FE01EF5BFF4F608171818281938120E01F
:1020400030E04FE753E40E94C50318160CF07EC041
:10205000FE01EB5BFF4F608171818281938120E003
:1020600030E04AE754E40E941903DC01CB018CAF55
:102070009DAFAEAFBFAF6CAD7DAD8EAD9FAD20E07F
:1020800030E04AEF54E40E941F02DC01CB0188AF2C
:1020900099AFAAAFBBAF68AD79AD8AAD9BAD20E07B
:1020A00030E040E85FE30E94250488232CF481E0BF
:1020B00090E09FAB8EAB3FC068AD79AD8AAD9BAD74
:1020C00020E03FEF4FE757E40E94C50318164CF598
:1020D0006CAD7DAD8EAD9FAD20E030E040E251E4CF
:1020E0000E941F02DC01CB01BC01CD010E9449000E
:1020F000DC01CB019FAB8EAB0FC088EC90E09DABB9
:102100008CAB8CA99DA90197F1F79DAB8CAB8EA9E7
:102110009FA901979FAB8EAB8EA99FA9009769F7E6
:102120002DC068AD79AD8AAD9BAD0E944900DC0140
:10213000CB019FAB8EAB8EA99FA99BAB8AAB8AA923
:102140009BA90197F1F79BAB8AAB18C0FE01EF5B2F
:10215000FF4F60817181828193810E944900DC017F
:10216000CB01FE01E05CFF4F8083FE01E05CFF4F8E
:10217000808189AB89A98A95F1F789ABABE3B0E09F
:10218000EBE3F0E08081282F2F70FE01E755FF4F31
:102190008081882F90E082959295907F9827807F0C
:1021A0009827822B8C9380E090E0A6E1B4E48DA781
:1021B0009EA7AFA7B8AB6DA57EA58FA598A92BEA62
:1021C0003AEA4AE250E40E941F02DC01CB0189A7EF
:1021D0009AA7ABA7BCA769A57AA58BA59CA520E06B
:1021E00030E040E85FE30E94250488231CF481E08E
:1021F00088A791C069A57AA58BA59CA520E030E0B1
:102200004FE753E40E94C50318160CF07BC06DA580
:102210007EA58FA598A920E030E04AE754E40E940B
:102220001903DC01CB018CA39DA3AEA3BFA36CA1BA
:102230007DA18EA19FA120E030E04AEF54E40E94EE
:102240001F02DC01CB0188A399A3AAA3BBA368A1A9
:1022500079A18AA19BA120E030E040E85FE30E94E1
:10226000250488232CF481E090E09F8F8E8F3FC05F
:1022700068A179A18AA19BA120E03FEF4FE757E435
:102280000E94C50318164CF56CA17DA18EA19FA1DB
:1022900020E030E040E251E40E941F02DC01CB016B
:1022A000BC01CD010E944900DC01CB019F8F8E8FC4
:1022B0000FC088EC90E09D8F8C8F8C8D9D8D019749
:1022C000F1F79D8F8C8F8E8D9F8D01979F8F8E8FB5
:1022D0008E8D9F8D009769F724C068A179A18AA18E
:1022E0009BA10E944900DC01CB019F8F8E8F8E8DB8
:1022F0009F8D9B8F8A8F8A8D9B8D0197F1F79B8F86
:102300008A8F0FC069A57AA58BA59CA50E9449005C
:10231000DC01CB0188A788A5898F898D8A95F1F783
:10232000898FABE3B0E0EBE3F0E08081877F8C93B3
:1023300080E090E0A6E1B4E48D8B9E8BAF8BB88FEC
:102340006D897E898F89988D2BEA3AEA4AE250E4BA
:102350000E941F02DC01CB01898B9A8BAB8BBC8B5B
:1023600069897A898B899C8920E030E040E85FE3C5
:102370000E94250488231CF481E0888B91C0698920
:102380007A898B899C8920E030E04FE753E40E94F2
:10239000C50318160CF07BC06D897E898F89988DD6
:1023A00020E030E04AE754E40E941903DC01CB014D
:1023B0008C879D87AE87BF876C857D858E859F8541
:1023C00020E030E04AEF54E40E941F02DC01CB0120
:1023D00088879987AA87BB87688579858A859B8541
:1023E00020E030E040E85FE30E94250488232CF4DD
:1023F00081E090E09F838E833FC0688579858A85E0
:102400009B8520E03FEF4FE757E40E94C503181675
:102410004CF56C857D858E859F8520E030E040E21F
:1024200051E40E941F02DC01CB01BC01CD010E94DE
:102430004900DC01CB019F838E830FC088EC90E0C4
:102440009D838C838C819D810197F1F79D838C8383
:102450008E819F8101979F838E838E819F810097BC
:1024600069F724C0688579858A859B850E94490023
:10247000DC01CB019F838E838E819F819B838A8326
:102480008A819B810197F1F79B838A830FC06989B9
:102490007A898B899C890E944900DC01CB01888B59
:1024A0008889898389818A95F1F78983C755DF4FA8
:1024B0000FB6F894DEBF0FBECDBFCF91DF911F9155
:1024C0000F9108950F931F93DF93CF93CDB7DEB78E
:1024D000C95AD0400FB6F894DEBF0FBECDBFFE0183
:1024E000E755FF4F8083ABE3B0E0EBE3F0E08081A2
:1024F00082608C93ABE3B0E0EBE3F0E080818B7F14
:102500008C93FE01EB55FF4F80E090E0A6E1B4E430
:1025100080839183A283B3838E010F551F4FFE01E9
:10252000EB55FF4F60817181828193812BEA3AEAFA
:102530004AE250E40E941F02DC01CB01F8018083D3
:102540009183A283B383FE01EF55FF4F60817181B8
:102550008281938120E030E040E85FE30E9425041F
:10256000882334F4FE01E056FF4F81E08083E0C011
:10257000FE01EF55FF4F608171818281938120E0E0
:1025800030E04FE753E40E94C50318160CF0C0C0BA
:10259000FE01EB55FF4F608171818281938120E0C4
:1025A00030E04AE754E40E941903DC01CB01FE014C
:1025B000E456FF4F80839183A283B3838E01085634
:1025C0001F4FFE01E456FF4F60817181828193812C
:1025D00020E030E04AEF54E40E941F02DC01CB010E
:1025E000F80180839183A283B383FE01E856FF4FF5
:1025F000608171818281938120E030E040E85FE377
:102600000E942504882344F4FE01EA56FF4F81E02E
:1026100090E09183808364C0FE01E856FF4F6081A3
:1026200071818281938120E03FEF4FE757E40E9460
:10263000C50318160CF043C0FE01E456FF4F60813D
:1026400071818281938120E030E040E251E40E9478
:102650001F02DC01CB018E010A561F4FBC01CD01C8
:102660000E944900DC01CB01F801918380831FC0E7
:10267000FE01EC56FF4F88EC90E091838083FE01D1
:10268000EC56FF4F808191810197F1F7FE01EC56E6
:10269000FF4F91838083DE01AA56BF4FFE01EA56A9
:1026A000FF4F80819181019711969C938E93FE013B
:1026B000EA56FF4F808191810097D1F64BC08E0181
:1026C0000A561F4FFE01E856FF4F608171818281DB
:1026D00093810E944900DC01CB01F8019183808342
:1026E000DE01AE56BF4FFE01EA56FF4F8081918159
:1026F00011969C938E93FE01EE56FF4F808191813F
:102700000197F1F7FE01EE56FF4F9183808322C0BF
:102710008E0100561F4FFE01EF55FF4F6081718102
:10272000828193810E944900DC01CB01F801808302
:10273000DE01AF56BF4FFE01E056FF4F80818C9304
:10274000FE01EF56FF4F80818A95F1F7FE01EF56AB
:10275000FF4F8083ABE3B0E0EBE3F0E08081886083
:102760008C93FE01E357FF4F80E090E0A6E1B4E4D4
:1027700080839183A283B3838E0107571F4FFE018D
:10278000E357FF4F60817181828193812BEA3AEA9E
:102790004AE250E40E941F02DC01CB01F801808371
:1027A0009183A283B383FE01E757FF4F608171815C
:1027B0008281938120E030E040E85FE30E942504BD
:1027C000882334F4FE01E857FF4F81E08083E0C0A6
:1027D000FE01E757FF4F608171818281938120E084
:1027E00030E04FE753E40E94C50318160CF0C0C058
:1027F000FE01E357FF4F608171818281938120E068
:1028000030E04AE754E40E941903DC01CB01FE01E9
:10281000EC57FF4F80839183A283B3838E010058CE
:102820001F4FFE01EC57FF4F6081718182819381C0
:1028300020E030E04AEF54E40E941F02DC01CB01AB
:10284000F80180839183A283B383FE01E058FF4F98
:10285000608171818281938120E030E040E85FE314
:102860000E942504882344F4FE01E258FF4F81E0D2
:1028700090E09183808364C0FE01E058FF4F608147
:1028800071818281938120E03FEF4FE757E40E94FE
:10289000C50318160CF043C0FE01EC57FF4F6081D2
:1028A00071818281938120E030E040E251E40E9416
:1028B0001F02DC01CB018E0102581F4FBC01CD016C
:1028C0000E944900DC01CB01F801918380831FC085
:1028D000FE01E458FF4F88EC90E091838083FE0175
:1028E000E458FF4F808191810197F1F7FE01E45890
:1028F000FF4F91838083DE01A258BF4FFE01E25853
:10290000FF4F80819181019711969C938E93FE01D8
:10291000E258FF4F808191810097D1F64BC08E0124
:1029200002581F4FFE01E058FF4F60817181828184
:1029300093810E944900DC01CB01F80191838083DF
:10294000DE01A658BF4FFE01E258FF4F8081918102
:1029500011969C938E93FE01E658FF4F80819181E2
:102960000197F1F7FE01E658FF4F9183808322C063
:102970008E0108571F4FFE01E757FF4F608171819D
:10298000828193810E944900DC01CB01F8018083A0
:10299000DE01A758BF4FFE01E857FF4F80818C939F
:1029A000FE01E758FF4F80818A95F1F7FE01E75855
:1029B000FF4F8083ABE3B0E0EBE3F0E08081982F42
:1029C0009F70FE01E755FF4F8081807F892B8C939C
:1029D000FE01EB58FF4F80E090E0A6E1B4E4808375
:1029E0009183A283B3838E010F581F4FFE01EB58D2
:1029F000FF4F60817181828193812BEA3AEA4AE23A
:102A000050E40E941F02DC01CB01F8018083918316
:102A1000A283B383FE01EF58FF4F608171818281F1
:102A2000938120E030E040E85FE30E9425048823A2
:102A300034F4FE01E059FF4F81E08083E0C0FE01E5
:102A4000EF58FF4F608171818281938120E030E0F7
:102A50004FE753E40E94C50318160CF0C0C0FE01F6
:102A6000EB58FF4F608171818281938120E030E0DB
:102A70004AE754E40E941903DC01CB01FE01E4594A
:102A8000FF4F80839183A283B3838E0108591F4F28
:102A9000FE01E459FF4F608171818281938120E0C2
:102AA00030E04AEF54E40E941F02DC01CB01F80140
:102AB00080839183A283B383FE01E859FF4F608135
:102AC00071818281938120E030E040E85FE30E94E1
:102AD0002504882344F4FE01EA59FF4F81E090E089
:102AE0009183808364C0FE01E859FF4F608171814A
:102AF0008281938120E03FEF4FE757E40E94C503B6
:102B000018160CF043C0FE01E459FF4F608171813B
:102B10008281938120E030E040E251E40E941F0274
:102B2000DC01CB018E010A591F4FBC01CD010E946F
:102B30004900DC01CB01F801918380831FC0FE01B5
:102B4000EC59FF4F88EC90E091838083FE01EC59B3
:102B5000FF4F808191810197F1F7FE01EC59FF4F02
:102B600091838083DE01AA59BF4FFE01EA59FF4FCE
:102B700080819181019711969C938E93FE01EA5971
:102B8000FF4F808191810097D1F64BC08E010A5989
:102B90001F4FFE01E859FF4F60817181828193814F
:102BA0000E944900DC01CB01F80191838083DE01A2
:102BB000AE59BF4FFE01EA59FF4F808191811196B6
:102BC0009C938E93FE01EE59FF4F80819181019776
:102BD000F1F7FE01EE59FF4F9183808322C08E01F1
:102BE00000591F4FFE01EF58FF4F608171818281B4
:102BF00093810E944900DC01CB01F8018083DE0152
:102C0000AF59BF4FFE01E059FF4F80818C93FE0109
:102C1000EF59FF4F80818A95F1F7FE01EF59FF4F81
:102C20008083ABE3B0E0EBE3F0E08081877F8C93BF
:102C3000FE01E35AFF4F80E090E0A6E1B4E4808318
:102C40009183A283B3838E01075A1F4FFE01E35A7B
:102C5000FF4F60817181828193812BEA3AEA4AE2D7
:102C600050E40E941F02DC01CB01F80180839183B4
:102C7000A283B383FE01E75AFF4F60817181828195
:102C8000938120E030E040E85FE30E942504882340
:102C900034F4FE01E85AFF4F81E08083E0C0FE017A
:102CA000E75AFF4F608171818281938120E030E09B
:102CB0004FE753E40E94C50318160CF0C0C0FE0194
:102CC000E35AFF4F608171818281938120E030E07F
:102CD0004AE754E40E941903DC01CB01FE01EC5ADF
:102CE000FF4F80839183A283B3838E01005B1F4FCC
:102CF000FE01EC5AFF4F608171818281938120E057
:102D000030E04AEF54E40E941F02DC01CB01F801DD
:102D100080839183A283B383FE01E05BFF4F6081D8
:102D200071818281938120E030E040E85FE30E947E
:102D30002504882344F4FE01E25BFF4F81E090E02C
:102D40009183808364C0FE01E05BFF4F60817181ED
:102D50008281938120E03FEF4FE757E40E94C50353
:102D600018160CF043C0FE01EC5AFF4F60817181D0
:102D70008281938120E030E040E251E40E941F0212
:102D8000DC01CB018E01025B1F4FBC01CD010E9413
:102D90004900DC01CB01F801918380831FC0FE0153
:102DA000E45BFF4F88EC90E091838083FE01E45B5D
:102DB000FF4F808191810197F1F7FE01E45BFF4FA6
:102DC00091838083DE01A25BBF4FFE01E25BFF4F78
:102DD00080819181019711969C938E93FE01E25B15
:102DE000FF4F808191810097D1F64BC08E01025B2D
:102DF0001F4FFE01E05BFF4F6081718182819381F3
:102E00000E944900DC01CB01F80191838083DE013F
:102E1000A65BBF4FFE01E25BFF4F8081918111965F
:102E20009C938E93FE01E65BFF4F80819181019719
:102E3000F1F7FE01E65BFF4F9183808322C08E0194
:102E4000085A1F4FFE01E75AFF4F6081718182814E
:102E500093810E944900DC01CB01F8018083DE01EF
:102E6000A75BBF4FFE01E85AFF4F80818C93FE01A4
:102E7000E75BFF4F80818A95F1F7FE01E75BFF4F2B
:102E80008083ABE3B0E0EBE3F0E0808188608C937B
:102E9000FE01EB5BFF4F80E090E0A6E1B4E48083AD
:102EA0009183A283B3838E010F5B1F4FFE01EB5B07
:102EB000FF4F60817181828193812BEA3AEA4AE275
:102EC00050E40E941F02DC01CB01F8018083918352
:102ED000A283B383FE01EF5BFF4F6081718182812A
:102EE000938120E030E040E85FE30E9425048823DE
:102EF00034F481E0FE01E05CFF4F80839DC0FE0161
:102F0000EF5BFF4F608171818281938120E030E02F
:102F10004FE753E40E94C50318160CF07EC0FE0173
:102F2000EB5BFF4F608171818281938120E030E013
:102F30004AE754E40E941903DC01CB018CAF9DAF3A
:102F4000AEAFBFAF6CAD7DAD8EAD9FAD20E030E0DC
:102F50004AEF54E40E941F02DC01CB0188AF99AF15
:102F6000AAAFBBAF68AD79AD8AAD9BAD20E030E0D4
:102F700040E85FE30E94250488232CF481E090E080
:102F80009FAB8EAB3FC068AD79AD8AAD9BAD20E005
:102F90003FEF4FE757E40E94C50318164CF56CADA0
:102FA0007DAD8EAD9FAD20E030E040E251E40E9467
:102FB0001F02DC01CB01BC01CD010E944900DC01F4
:102FC000CB019FAB8EAB0FC088EC90E09DAB8CAB80
:102FD0008CA99DA90197F1F79DAB8CAB8EA99FA9F8
:102FE00001979FAB8EAB8EA99FA9009769F72DC063
:102FF00068AD79AD8AAD9BAD0E944900DC01CB0183
:103000009FAB8EAB8EA99FA99BAB8AAB8AA99BA9CC
:103010000197F1F79BAB8AAB18C0FE01EF5BFF4F46
:1030200060817181828193810E944900DC01CB0122
:10303000FE01E05CFF4F8083FE01E05CFF4F80817A
:1030400089AB89A98A95F1F789ABABE3B0E0EBE3F3
:10305000F0E08081282F2F70FE01E755FF4F80811F
:10306000882F90E082959295907F9827807F98276F
:10307000822B8C9380E090E0A6E1B4E48DA79EA71C
:10308000AFA7B8AB6DA57EA58FA598A92BEA3AEAA4
:103090004AE250E40E941F02DC01CB0189A79AA7F3
:1030A000ABA7BCA769A57AA58BA59CA520E030E0BD
:1030B00040E85FE30E94250488231CF481E088A790
:1030C00091C069A57AA58BA59CA520E030E04FE7CB
:1030D00053E40E94C50318160CF07BC06DA57EA5B5
:1030E0008FA598A920E030E04AE754E40E94190334
:1030F000DC01CB018CA39DA3AEA3BFA36CA17DA1DA
:103100008EA19FA120E030E04AEF54E40E941F020C
:10311000DC01CB0188A399A3AAA3BBA368A179A1D1
:103120008AA19BA120E030E040E85FE30E942504F3
:1031300088232CF481E090E09F8F8E8F3FC068A1A0
:1031400079A18AA19BA120E03FEF4FE757E40E94BD
:10315000C50318164CF56CA17DA18EA19FA120E09E
:1031600030E040E251E40E941F02DC01CB01BC01CF
:10317000CD010E944900DC01CB019F8F8E8F0FC0D3
:1031800088EC90E09D8F8C8F8C8D9D8D0197F1F751
:103190009D8F8C8F8E8D9F8D01979F8F8E8F8E8DA3
:1031A0009F8D009769F724C068A179A18AA19BA18E
:1031B0000E944900DC01CB019F8F8E8F8E8D9F8DE9
:1031C0009B8F8A8F8A8D9B8D0197F1F79B8F8A8FBA
:1031D0000FC069A57AA58BA59CA50E944900DC01BA
:1031E000CB0188A788A5898F898D8A95F1F7898F6A
:1031F000ABE3B0E0EBE3F0E08081877F8C9380E08D
:1032000090E0A6E1B4E48D8B9E8BAF8BB88F6D8977
:103210007E898F89988D2BEA3AEA4AE250E40E942F
:103220001F02DC01CB01898B9A8BAB8BBC8B69892C
:103230007A898B899C8920E030E040E85FE30E9436
:10324000250488231CF481E0888B91C069897A89E0
:103250008B899C8920E030E04FE753E40E94C5034E
:1032600018160CF07BC06D897E898F89988D20E0BF
:1032700030E04AE754E40E941903DC01CB018C875B
:103280009D87AE87BF876C857D858E859F8520E075
:1032900030E04AEF54E40E941F02DC01CB01888732
:1032A0009987AA87BB87688579858A859B8520E071
:1032B00030E040E85FE30E94250488232CF481E09D
:1032C00090E09F838E833FC0688579858A859B8542
:1032D00020E03FEF4FE757E40E94C50318164CF576
:1032E0006C857D858E859F8520E030E040E251E44D
:1032F0000E941F02DC01CB01BC01CD010E944900EC
:10330000DC01CB019F838E830FC088EC90E09D830E
:103310008C838C819D810197F1F79D838C838E81B5
:103320009F8101979F838E838E819F81009769F78C
:1033300024C0688579858A859B850E944900DC01C7
:10334000CB019F838E838E819F819B838A838A8119
:103350009B810197F1F79B838A830FC069897A89E2
:103360008B899C890E944900DC01CB01888B88896C
:10337000898389818A95F1F78983C755DF4F0FB615
:10338000F894DEBF0FBECDBFCF91DF911F910F919B
:103390000895DF93CF9300D00F92CDB7DEB79B8314
:1033A0008A8319820EC08981282F30E08A819B810F
:1033B000FC01E20FF31F80810E94621289818F5FFE
:1033C00089838981282F30E08A819B81FC01E20F6B
:1033D000F31F8081882339F70F900F900F90CF91C2
:1033E000DF910895DF93CF9300D000D00F92CDB737
:1033F000DEB78A836B838A81282F30E03D832C835C
:103400008C819D8181309105C1F02C813D812230DC
:1034100031052CF48C819D81009761F019C02C81BD
:103420003D812230310569F08C819D818330910589
:1034300061F00EC08B8189830BC08B81805C898396
:1034400007C08B81805F898303C08B81805B898308
:10345000898180680E94FB0A0F900F900F900F9057
:103460000F90CF91DF910895DF93CF9300D000D0DC
:10347000CDB7DEB789836A835C834B8389816A8198
:103480000E94F2198B819C810E94C9190F900F90A4
:103490000F900F90CF91DF910895DF93CF93CDB729
:1034A000DEB781E00E94FB0ACF91DF910895DF93A0
:1034B000CF93CDB7DEB7C851D1400FB6F894DEBF79
:1034C0000FBECDBF8CE061E00E944F069E012D5FD4
:1034D0003F4FC553DF4F39832883CB5CD04080E614
:1034E00090E0C353DF4F99838883CD5CD04098E050
:1034F000C153DF4F9883CF5CD040C353DF4FA881C7
:10350000B981CD5CD0400C90C353DF4FE881F98185
:10351000CD5CD0403196C353DF4FF983E883CD5C57
:10352000D040C553DF4FA881B981CB5CD0400C920D
:10353000C553DF4FE881F981CB5CD0403196C5534C
:10354000DF4FF983E883CB5CD040C153DF4FF88174
:10355000CF5CD040F150C153DF4FF883CF5CD040F7
:10356000C153DF4F2881CF5CD040222331F6CE01FA
:103570000B96C053DF4F99838883C05DD040A8E687
:10358000B0E0CE52DF4FB983A883C25DD040BFE028
:10359000CC52DF4FB883C45DD040CE52DF4FE881BC
:1035A000F981C25DD0400080CE52DF4F2881398141
:1035B000C25DD0402F5F3F4FCE52DF4F398328830B
:1035C000C25DD040C053DF4FA881B981C05DD040FB
:1035D0000C92C053DF4FE881F981C05DD040319635
:1035E000C053DF4FF983E883C05DD040CC52DF4F3A
:1035F000F881C45DD040F150CC52DF4FF883C45DF8
:10360000D040CC52DF4F2881C45DD040222329F620
:10361000CE014A96CB52DF4F99838883C55DD04057
:10362000A7E7B0E0C952DF4FB983A883C75DD04098
:10363000BFE0C752DF4FB883C95DD040C952DF4FEA
:10364000E881F981C75DD0400080C952DF4F2881F1
:103650003981C75DD0402F5F3F4FC952DF4F39835B
:103660002883C75DD040CB52DF4FA881B981C55DAB
:10367000D0400C92CB52DF4FE881F981C55DD0403C
:103680003196CB52DF4FF983E883C55DD040C752F6
:10369000DF4FF881C95DD040F150C752DF4FF8834A
:1036A000C95DD040C752DF4F2881C95DD040222379
:1036B00029F6CE018996C652DF4F99838883CA5D69
:1036C000D040A6E8B0E0C452DF4FB983A883CC5DF8
:1036D000D040BEE0C252DF4FB883CE5DD040C4526E
:1036E000DF4FE881F981CC5DD0400080C452DF4FCC
:1036F00028813981CC5DD0402F5F3F4FC452DF4FCE
:1037000039832883CC5DD040C652DF4FA881B98170
:10371000CA5DD0400C92C652DF4FE881F981CA5D84
:10372000D0403196C652DF4FF983E883CA5DD0405E
:10373000C252DF4FF881CE5DD040F150C252DF4F10
:10374000F883CE5DD040C252DF4F2881CE5DD0409D
:10375000222329F6CE01C796C152DF4F9983888371
:10376000CF5DD040A4E9B0E0CF51DF4FB983A8834B
:10377000C15ED040B6E0CD51DF4FB883C35ED040CC
:10378000CF51DF4FE881F981C15ED0400080CF5139
:10379000DF4F28813981C15ED0402F5F3F4FCF512D
:1037A000DF4F39832883C15ED040C152DF4FA881EB
:1037B000B981CF5DD0400C92C152DF4FE881F981D1
:1037C000CF5DD0403196C152DF4FF983E883CF5DA2
:1037D000D040CD51DF4FF881C35ED040F150CD5184
:1037E000DF4FF883C35ED040CD51DF4F2881C35EE9
:1037F000D040222329F6CE01CD96CC51DF4F9983BC
:103800008883C45ED040AAE9B0E0CA51DF4FB983D3
:10381000A883C65ED040B0E1C851DF4FB883C85E10
:10382000D040CA51DF4FE881F981C65ED0400080A8
:10383000CA51DF4F28813981C65ED0402F5F3F4F8C
:10384000CA51DF4F39832883C65ED040CC51DF4F49
:10385000A881B981C45ED0400C92CC51DF4FE88181
:10386000F981C45ED0403196CC51DF4FF983E883B3
:10387000C45ED040C851DF4FF881C85ED040F150DF
:10388000C851DF4FF883C85ED040C851DF4F288150
:10389000C85ED040222329F6CE01835B9F4FC751DB
:1038A000DF4F99838883C95ED0408AEA90E0C55192
:1038B000DF4F99838883CB5ED04091E1C351DF4FC6
:1038C0009883CD5ED040C551DF4FA881B981CB5ED2
:1038D000D0400C90C551DF4FE881F981CB5ED040DC
:1038E0003196C551DF4FF983E883CB5ED040C75195
:1038F000DF4FA881B981C95ED0400C92C751DF4F1C
:10390000E881F981C95ED0403196C751DF4FF98314
:10391000E883C95ED040C351DF4FF881CD5ED0400F
:10392000F150C351DF4FF883CD5ED040C351DF4F1C
:103930002881CD5ED040222331F6CE01825A9F4F9E
:10394000C251DF4F99838883CE5ED0408CEB90E0EC
:10395000C051DF4F99838883C05FD0409EE0CE5036
:10396000DF4F9883C25FD040C051DF4FA881B9813B
:10397000C05FD0400C90C051DF4FE881F981C05F3B
:10398000D0403196C051DF4FF983E883C05FD0400B
:10399000C251DF4FA881B981CE5ED0400C92C25196
:1039A000DF4FE881F981CE5ED0403196C251DF4FC2
:1039B000F983E883CE5ED040CE50DF4FF881C25FFE
:1039C000D040F150CE50DF4FF883C25FD040CE5090
:1039D000DF4F2881C25FD040222331F6CE018459C7
:1039E0009F4FCD50DF4F99838883C35FD0408AECCF
:1039F00090E0CB50DF4F99838883C55FD0409FE034
:103A0000C950DF4F9883C75FD040CB50DF4FA881AC
:103A1000B981C55FD0400C90CB50DF4FE881F98170
:103A2000C55FD0403196CB50DF4FF983E883C55F47
:103A3000D040CD50DF4FA881B981C35FD0400C92F8
:103A4000CD50DF4FE881F981C35FD0403196CD5032
:103A5000DF4FF983E883C35FD040C950DF4FF8815F
:103A6000C75FD040F150C950DF4FF883C75FD040E7
:103A7000C950DF4F2881C75FD040222331F6CE01E5
:103A800085589F4F20E5FC01DF01322F1D923A95AA
:103A9000E9F7CE0185589F4FC850DF4F998388833F
:103AA000C85FD040C850DF4FA881B981C85FD040FF
:103AB000C650DF4FB983A883CA5FD040E9EDF0E07C
:103AC000C450DF4FF983E883CC5FD040FFE0C250A1
:103AD000DF4FF883CE5FD040C450DF4FA881B9815B
:103AE000CC5FD0400C90C450DF4FE881F981CC5FAF
:103AF000D0403196C450DF4FF983E883CC5FD0408B
:103B0000C650DF4FA881B981CA5FD0400C92C65021
:103B1000DF4FE881F981CA5FD0403196C650DF4F50
:103B2000F983E883CA5FD040C250DF4FF881CE5F8F
:103B3000D040F150C250DF4FF883CE5FD040C2502A
:103B4000DF4F2881CE5FD040222331F6C850DF4FAF
:103B5000A881B981C85FD0401F961C92FE01E5582C
:103B6000FF4FC150DF4FF983E883CF5FD040C15092
:103B7000DF4F28813981CF5FD040205F3F4FCF5F3B
:103B8000DE4F39832883C150D14089EE90E0CD5F6C
:103B9000DE4F99838883C350D1409FE0CB5FDE4FD7
:103BA0009883C550D140CD5FDE4FA881B981C35005
:103BB000D1400C90CD5FDE4FE881F981C350D140F8
:103BC0003196CD5FDE4FF983E883C350D140CF5F9C
:103BD000DE4FA881B981C150D1400C92CF5FDE4F3A
:103BE000E881F981C150D1403196CF5FDE4FF98332
:103BF000E883C150D140CB5FDE4FF881C550D14042
:103C0000F150CB5FDE4FF883C550D140CB5FDE4F24
:103C10002881C550D140222331F6C150DF4FA88101
:103C2000B981CF5FD0405F961C92FE01E558FF4FEF
:103C3000CA5FDE4FF983E883C650D140CA5FDE4FCA
:103C400028813981C650D140205E3F4FC85FDE4F8A
:103C500039832883C850D14089EF90E0C65FDE4F9A
:103C600099838883CA50D1409FE0C45FDE4F988318
:103C7000CC50D140C65FDE4FA881B981CA50D14037
:103C80000C90C65FDE4FE881F981CA50D140319671
:103C9000C65FDE4FF983E883CA50D140C85FDE4F6C
:103CA000A881B981C850D1400C92C85FDE4FE8812D
:103CB000F981C850D1403196C85FDE4FF983E8835F
:103CC000C850D140C45FDE4FF881CC50D140F15094
:103CD000C45FDE4FF883CC50D140C45FDE4F2881F3
:103CE000CC50D140222331F6CA5FDE4FA881B98182
:103CF000C650D1409F961C92FE01E558FF4FC35F0E
:103D0000DE4FF983E883CD50D140C35FDE4F288179
:103D10003981CD50D140205D3F4FC15FDE4F3983A7
:103D20002883CF50D14089E091E0CF5EDE4F998368
:103D30008883C151D1409FE0CD5EDE4F9883C3514F
:103D4000D140CF5EDE4FA881B981C151D1400C90E6
:103D5000CF5EDE4FE881F981C151D1403196CF5E0F
:103D6000DE4FF983E883C151D140C15FDE4FA881A6
:103D7000B981CF50D1400C92C15FDE4FE881F9810B
:103D8000CF50D1403196C15FDE4FF983E883CF50E9
:103D9000D140CD5EDE4FF881C351D140F150CD5EB0
:103DA000DE4FF883C351D140CD5EDE4F2881C35131
:103DB000D140222331F6C35FDE4FA881B981CD50B7
:103DC000D140DF961C92CE0185589F4FFC01E05CEC
:103DD000FF4FCC5EDE4FF983E883C451D14029E127
:103DE00031E0CA5EDE4F39832883C651D14030E1CD
:103DF000C85EDE4F3883C851D140CA5EDE4FA8810D
:103E0000B981C651D1400C90CA5EDE4FE881F9817C
:103E1000C651D1403196CA5EDE4FF983E883C65160
:103E2000D140CC5EDE4FA881B981C451D1400C9203
:103E3000CC5EDE4FE881F981C451D1403196CC5E31
:103E4000DE4FF983E883C451D140C85EDE4FF8816C
:103E5000C851D140F150C85EDE4FF883C851D140FF
:103E6000C85EDE4F2881C851D140222331F68091AF
:103E70004001853070F49E012D5F3F4F80E064E08B
:103E8000A9010E94341A809140018F5F8093400104
:103E9000EAC0809140018A3070F49E01255F3F4F57
:103EA00081E061E0A9010E94341A809140018F5F96
:103EB00080934001D8C0809140018A3041F40E9433
:103EC0004D1A809140018F5F80934001CCC080915A
:103ED00040018F30B0F49E01265E3F4F80E061E0EC
:103EE000A9010E94341A9E01275D3F4F81E061E0E5
:103EF000A9010E94341A809140018F5F8093400194
:103F0000B2C0809140018F3041F40E944D1A8091DF
:103F100040018F5F80934001A6C0809140018431B1
:103F200070F49E01295C3F4F80E065E0A9010E948A
:103F3000341A809140018F5F8093400194C080913A
:103F40004001843129F080914001853109F066C03B
:103F5000809140018431C9F40E944D1A9E01255878
:103F60003F4F80913A01882F90E082959295907F03
:103F70009827807F9827820F931F0E94C9198091EC
:103F800040018F5F809340016EC080914001853178
:103F900009F069C09E0125583F4F80913A01882F52
:103FA00090E082959295907F9827807F9827820F46
:103FB000931F9A83898390913F0180913A019817CA
:103FC00031F00E944D1A89819A810E94C91980910D
:103FD0003A018530F1F40E944D1A9E01235C3F4F57
:103FE00080E060E0A9010E94341A80913B01805D6D
:103FF0000E9462129E01235B3F4F81E060E0A901B5
:104000000E94341A10923A01809140018F5F809390
:10401000400180913A0180933F0125C08091400189
:104020008E3130F4809140018F5F809340011BC03E
:10403000809140018E31B9F40E944D1A9E01225A9E
:104040003F4F80E060E0A9010E94341A9E0124598C
:104050003F4F81E060E0A9010E94341A8091400145
:104060008F5F809340018CE060E00E944F06C85E45
:10407000DE4F0FB6F894DEBF0FBECDBFCF91DF91FC
:104080000895DF93CF93CDB7DEB78CE061E00E9457
:10409000B0078DE061E00E94B0078EE061E00E9411
:1040A000B0070E9406210E94E5080E94DA0A2DEB63
:1040B0003AE081E068EC70E0A9010E94472127E521
:1040C0003AE180E068EC70E0A9010E944721AFE589
:1040D000B0E0EFE5F0E0808180688C930E94A3213E
:1040E00080E090E0CF91DF9108951F920F920FB67C
:1040F0000F921124EF92FF920F931F932F933F93F0
:104100004F935F936F937F938F939F93AF93BF93DF
:10411000EF93FF93DF93CF930F92CDB7DEB78091EC
:10412000410190914201A0914301B0914401019657
:10413000A11DB11D8093410190934201A0934301C1
:10414000B0934401198246C08981282F30E0C9010B
:10415000880F991F880F991F820F931FFC01E85B3E
:10416000FE4F80819181009791F1E0904101F090A4
:10417000420100914301109144018981282F30E0D0
:10418000C901880F991F880F991F820F931FFC0187
:10419000EA5BFE4F808191819C0140E050E0C801C4
:1041A000B7010E948B22DC01CB010097A105B1056C
:1041B00071F48981282F30E0C901880F991F880F79
:1041C000991F820F931FFC01EB5BFE4F10828981C8
:1041D0008F5F89838981843608F4B6CF0F90CF91A1
:1041E000DF91FF91EF91BF91AF919F918F917F915F
:1041F0006F915F914F913F912F911F910F91FF9080
:10420000EF900F900FBE0F901F901895DF93CF93F4
:104210000F92CDB7DEB70E949F081982198230C075
:104220008981282F30E0C901880F991F880F991FB5
:10423000820F931FFC01EB5BFE4F82E0808389813C
:10424000282F30E0C901880F991F880F991F820F0E
:10425000931FFC01EA5BFE4F118210828981282F97
:1042600030E0C901880F991F880F991F820F931F93
:10427000FC01E85BFE4F1182108289818F5F898388
:104280008981843668F20F90CF91DF910895DF9392
:10429000CF9300D000D000D0CDB7DEB78A837C8327
:1042A0006B835E834D838A81282F30E0C901880F9C
:1042B000991F880F991F820F931FFC01E85BFE4F27
:1042C00080819181009719F081E0898332C08A81D1
:1042D000282F30E0C901880F991F880F991F820F7E
:1042E000931FFC01EB5BFE4F82E080838A81282FC5
:1042F00030E0C901880F991F880F991F820F931F03
:10430000FC01EA5BFE4F8B819C81918380838A81D3
:10431000282F30E0C901880F991F880F991F820F3D
:10432000931FFC01E85BFE4F8D819E81918380830A
:104330001982898126960FB6F894DEBF0FBECDBFD5
:10434000CF91DF910895DF93CF930F92CDB7DEB772
:10435000198242C08981282F30E0C901880F991F36
:10436000880F991F820F931FFC01EB5BFE4F80812A
:10437000882379F58981282F30E0C901880F991F9A
:10438000880F991F820F931FFC01EB5BFE4F81E0AA
:1043900080838981282F30E0C901880F991F880FF9
:1043A000991F820F931FFC01E85BFE4F0190F08183
:1043B000E02D09958981282F30E0C901880F991FC8
:1043C000880F991F820F931FFC01EB5BFE4F82E069
:1043D000808389818F5F89838981843608F4BACF8D
:1043E000B7CFDF93CF9300D00F92CDB7DEB79B83CB
:1043F0008A83198245C08981282F30E0C901880F3E
:10440000991F880F991F820F931FFC01E85BFE4FD5
:10441000208131818A819B812817390771F5898133
:10442000282F30E0C901880F991F880F991F820F2C
:10443000931FFC01E85BFE4F118210828981282FB7
:1044400030E0C901880F991F880F991F820F931FB1
:10445000FC01EB5BFE4F82E080838981282F30E0F6
:10446000C901880F991F880F991F820F931FFC01A4
:10447000EA5BFE4F1182108207C089818F5F8983BA
:104480008981843608F4B7CF0F900F900F90CF91A9
:10449000DF910895DF93CF930F92CDB7DEB70E94DF
:1044A000D4081982198230C08981282F30E0C901CF
:1044B000880F991F880F991F820F931FFC01EB5BD8
:1044C000FE4F82E080838981282F30E0C901880F68
:1044D000991F880F991F820F931FFC01EA5BFE4F03
:1044E000118210828981282F30E0C901880F991F1D
:1044F000880F991F820F931FFC01E85BFE4F11820A
:10450000108289818F5F89838981843668F20F9058
:10451000CF91DF910895A1E21A2EAA1BBB1BFD01CA
:104520000DC0AA1FBB1FEE1FFF1FA217B307E40792
:10453000F50720F0A21BB30BE40BF50B661F771FEA
:10454000881F991F1A9469F76095709580959095CA
:104550009B01AC01BD01CF0108952F923F924F9274
:104560005F926F927F928F929F92AF92BF92CF9203
:10457000DF92EF92FF920F931F93CF93DF93CDB70C
:10458000DEB7CA1BDB0B0FB6F894DEBF0FBECDBF84
:1045900009942A88398848885F846E847D848C8455
:1045A0009B84AA84B984C884DF80EE80FD800C815E
:1045B0001B81AA81B981CE0FD11D0FB6F894DEBF41
:0C45C0000FBECDBFED010895F894FFCFB1
:1045CC0057656C636F6D650041726520796F75205E
:1045DC0072656164793F0050726573732031207489
:1045EC006F20796573005072657373203320746F7C
:1045FC00206E6F00537461727400596F7572205382
:10460C00636F72652049733A200020436F6E6772A6
:10461C006174756C6174696F6E732000546F2050F7
:10462C006C617920416761696E005072657373200B
:10463C004F6E20526573657400446F20796F75203E
:10464C006C6F766520483F00004973203134353754
:10465C00207072696D653F0000656767203E2063BE
:10466C006869636B656E3F0000656767203C20637B
:10467C006869636B656E3F000049732068616D610A
:10468C0064612079656C33623F000000000000001B
:0A469C00000001030301010A0103FD
:00000001FF
